{
  "contractName": "OrdersContract",
  "abi": [
    {
      "inputs": [],
      "name": "orderCounters",
      "outputs": [
        {
          "internalType": "uint256",
          "name": "",
          "type": "uint256"
        }
      ],
      "stateMutability": "view",
      "type": "function",
      "constant": true
    },
    {
      "inputs": [
        {
          "internalType": "uint256",
          "name": "",
          "type": "uint256"
        }
      ],
      "name": "orders",
      "outputs": [
        {
          "internalType": "uint256",
          "name": "id",
          "type": "uint256"
        },
        {
          "internalType": "string",
          "name": "stock",
          "type": "string"
        },
        {
          "internalType": "string",
          "name": "state",
          "type": "string"
        },
        {
          "internalType": "uint256",
          "name": "percentage",
          "type": "uint256"
        },
        {
          "internalType": "uint256",
          "name": "createdAt",
          "type": "uint256"
        }
      ],
      "stateMutability": "view",
      "type": "function",
      "constant": true
    },
    {
      "inputs": [
        {
          "internalType": "string",
          "name": "_stock",
          "type": "string"
        },
        {
          "internalType": "string",
          "name": "_state",
          "type": "string"
        },
        {
          "internalType": "uint256",
          "name": "_percentage",
          "type": "uint256"
        }
      ],
      "name": "createOrder",
      "outputs": [],
      "stateMutability": "nonpayable",
      "type": "function"
    }
  ],
  "bytecode": "0x60806040526000805534801561001457600080fd5b506107c1806100246000396000f3fe608060405234801561001057600080fd5b50600436106100415760003560e01c8063661cd540146100465780637686111614610062578063a85c38ef14610080575b600080fd5b610060600480360381019061005b91906103dc565b6100b4565b005b61006a610168565b60405161007791906104dc565b60405180910390f35b61009a60048036038101906100959190610467565b61016e565b6040516100ab9594939291906104f7565b60405180910390f35b6040518060a0016040528060005481526020018481526020018381526020018281526020014281525060016000600181526020019081526020016000206000820151816000015560208201518160010190805190602001906101179291906102b4565b5060408201518160020190805190602001906101349291906102b4565b50606082015181600301556080820151816004015590505060008081548092919061015e90610679565b9190505550505050565b60005481565b600160205280600052604060002060009150905080600001549080600101805461019790610616565b80601f01602080910402602001604051908101604052809291908181526020018280546101c390610616565b80156102105780601f106101e557610100808354040283529160200191610210565b820191906000526020600020905b8154815290600101906020018083116101f357829003601f168201915b50505050509080600201805461022590610616565b80601f016020809104026020016040519081016040528092919081815260200182805461025190610616565b801561029e5780601f106102735761010080835404028352916020019161029e565b820191906000526020600020905b81548152906001019060200180831161028157829003601f168201915b5050505050908060030154908060040154905085565b8280546102c090610616565b90600052602060002090601f0160209004810192826102e25760008555610329565b82601f106102fb57805160ff1916838001178555610329565b82800160010185558215610329579182015b8281111561032857825182559160200191906001019061030d565b5b509050610336919061033a565b5090565b5b8082111561035357600081600090555060010161033b565b5090565b600061036a6103658461057d565b610558565b90508281526020810184848401111561038657610385610754565b5b6103918482856105d4565b509392505050565b600082601f8301126103ae576103ad61074f565b5b81356103be848260208601610357565b91505092915050565b6000813590506103d681610774565b92915050565b6000806000606084860312156103f5576103f461075e565b5b600084013567ffffffffffffffff81111561041357610412610759565b5b61041f86828701610399565b935050602084013567ffffffffffffffff8111156104405761043f610759565b5b61044c86828701610399565b925050604061045d868287016103c7565b9150509250925092565b60006020828403121561047d5761047c61075e565b5b600061048b848285016103c7565b91505092915050565b600061049f826105ae565b6104a981856105b9565b93506104b98185602086016105e3565b6104c281610763565b840191505092915050565b6104d6816105ca565b82525050565b60006020820190506104f160008301846104cd565b92915050565b600060a08201905061050c60008301886104cd565b818103602083015261051e8187610494565b905081810360408301526105328186610494565b905061054160608301856104cd565b61054e60808301846104cd565b9695505050505050565b6000610562610573565b905061056e8282610648565b919050565b6000604051905090565b600067ffffffffffffffff82111561059857610597610720565b5b6105a182610763565b9050602081019050919050565b600081519050919050565b600082825260208201905092915050565b6000819050919050565b82818337600083830152505050565b60005b838110156106015780820151818401526020810190506105e6565b83811115610610576000848401525b50505050565b6000600282049050600182168061062e57607f821691505b60208210811415610642576106416106f1565b5b50919050565b61065182610763565b810181811067ffffffffffffffff821117156106705761066f610720565b5b80604052505050565b6000610684826105ca565b91507fffffffffffffffffffffffffffffffffffffffffffffffffffffffffffffffff8214156106b7576106b66106c2565b5b600182019050919050565b7f4e487b7100000000000000000000000000000000000000000000000000000000600052601160045260246000fd5b7f4e487b7100000000000000000000000000000000000000000000000000000000600052602260045260246000fd5b7f4e487b7100000000000000000000000000000000000000000000000000000000600052604160045260246000fd5b600080fd5b600080fd5b600080fd5b600080fd5b6000601f19601f8301169050919050565b61077d816105ca565b811461078857600080fd5b5056fea26469706673582212207f85e1df513e2d489be1151b5a0ec1ceb5d248ee6b134babb0b8741c8328eeea64736f6c63430008060033",
  "immutableReferences": {},
  "source": "// SPDX-License-Identifier: MIT\r\npragma solidity ^0.8.6;\r\n\r\n\r\ncontract OrdersContract{\r\n\r\n    uint public orderCounters = 0;\r\n\r\n\r\n    struct Orders {\r\n        uint id;\r\n        string stock;\r\n        string state;\r\n        uint256 percentage;\r\n        uint256 createdAt;\r\n    }\r\n\r\n    mapping (uint256 => Orders) public orders;\r\n\r\n\r\n    function createOrder(string memory _stock, string memory _state, uint256  _percentage) public {\r\n        orders[1] = Orders(orderCounters, _stock, _state, _percentage, block.timestamp);\r\n        orderCounters++;\r\n\r\n    }\r\n}\r\n",
  "sourcePath": "C:\\Users\\Lucio\\Desktop\\ordersApp\\contracts\\OrdersContract.sol",
  "compiler": {
    "name": "solc",
    "version": "0.8.6+commit.11564f7e.Emscripten.clang"
  },
  "schemaVersion": "3.4.16",
  "updatedAt": "2023-12-17T06:26:05.326Z",
  "networkType": "ethereum",
  "devdoc": {
    "kind": "dev",
    "methods": {},
    "version": 1
  },
  "userdoc": {
    "kind": "user",
    "methods": {},
    "version": 1
  }
}